:200000000C94DE020C9406030C9406030C9406030C9406030C9406030C9406030C940603C1
:200020000C9406030C9406030C9406030C9406030C9406030C9406030C9406030C94060378
:200040000C94FD0C0C9406030C9406030C9406030C9406030C9406030C9406030C94060358
:200060000C9406030C94060300000000003E5B4F5B3E3E6B4F6B3E1C3E7C3E1C183C7E3CCE
:20008000181C577D571C1C5E7F5E1C00183C1800FFE7C3E7FF0018241800FFE7DBE7FF304C
:2000A000483A060E2629792926407F050507407F05253F5A3CE73C5A7F3E1C1C08081C1C4B
:2000C0003E7F14227F22145F5F005F5F06097F017F006689956A606060606094A2FFA294B5
:2000E00008047E040810207E201008082A1C08081C2A08081E101010100C1E0C1E0C3038AA
:200100003E3830060E3E0E06000000000000005F00000007000700147F147F14242A7F2A35
:2001200012231308646236495620500008070300001C2241000041221C002A1C7F1C2A0841
:20014000083E080800807030000808080808000060600020100804023E5149453E00427FE7
:20016000400072494949462141494D331814127F1027454545393C4A4949314121110907B9
:200180003649494936464949291E000014000000403400000008142241141414141400414D
:2001A00022140802015909063E415D594E7C1211127C7F494949363E414141227F414141F1
:2001C0003E7F494949417F090909013E414151737F0808087F00417F41002040413F017FB0
:2001E000081422417F404040407F021C027F7F0408107F3E4141413E7F090909063E41511A
:20020000215E7F09192946264949493203017F01033F4040403F1F2040201F3F4038403F63
:20022000631408146303047804036159494D43007F4141410204081020004141417F0402E7
:200240000102044040404040000307080020545478407F284444383844444428384444284A
:200260007F385454541800087E090218A4A49C787F0804047800447D40002040403D007F4A
:200280001028440000417F40007C047804787C080404783844444438FC182424181824245A
:2002A00018FC7C08040408485454542404043F44243C4040207C1C2040201C3C4030403C47
:2002C00044281028444C9090907C4464544C440008364100000077000000413608000201BA
:2002E0000204023C2623263C1EA1A161123A4040207A385454555921555579412254547893
:2003000042215554784020545579400C1E52721239555555593954545459395554545800EA
:2003200000457C410002457D420001457C407D1211127DF0282528F07C54554500205454FD
:200340007C547C0A097F4932494949323A4444443A324A4848303A4141217A3A4240207810
:20036000009DA0A07D3D4242423D3D4040403D3C24FF2424487E4943662B2FFC2F2BFF0992
:2003800029F620C0887E090320545479410000447D413048484A32384040227A007A0A0AAA
:2003A000727D0D19317D2629292F28262929292630484D4020380808080808080808382FE0
:2003C00010C8ACBA2F102834FA00007B000008142A142222142A14085500550055AA55AA2F
:2003E00055AAFF55FF55FF000000FF00101010FF00141414FF001010FF00FF1010F010F0C0
:20040000141414FC001414F700FF0000FF00FF1414F404FC141417101F10101F101F141468
:20042000141F00101010F0000000001F101010101F10101010F010000000FF10101010105C
:2004400010101010FF10000000FF140000FF00FF00001F10170000FC04F414141710171488
:2004600014F404F40000FF00F714141414141414F700F7141414171410101F101F141414FB
:20048000F4141010F010F000001F101F0000001F14000000FC140000F010F01010FF10FF95
:2004A000141414FF141010101F00000000F010FFFFFFFFFFF0F0F0F0F0FFFFFF00000000F6
:2004C00000FFFF0F0F0F0F0F3844443844FC4A4A4A347E02020606027E027E0263554941B7
:2004E000633844443C04407E201E2006027E020299A5E7A5991C2A492A1C4C7201724C300E
:200500004A4D4D303048784830BC625A463D3E494949007E0101017E2A2A2A2A2A44445F93
:20052000444440514A444040444A51400000FF0103E080FF000008086B6B0836123624364D
:20054000060F090F06000018180000001010003040FF0101001F01011E00191D1712003CCD
:200560003C3C3C00000000000000000800020100000304070000000000000000010204089F
:200580001020408001020408102001020408102004040404040404040202020202020303BB
:2005A0000303030300000000250028002B0000000000240027002A00C803C10C11241FBE98
:2005C000CFEFD8E0DEBFCDBF12E0A0E0B1E0E8ECF5E202C005900D92AE32B107D9F722E06E
:2005E000AEE2B2E001C01D92AC36B207E1F715E0CCEBD5E004C02297FE010E94D912C83B89
:20060000D107C9F70E9486100C94E2120C94000080E392E00E94500C60E080E392E00E944C
:20062000FF0A40E050E060E070E080E392E00E9490096FEF7FEF80E392E00E94F50761E041
:2006400080E392E00E94EF076AE071E080E392E00E94AE0E60EE7FEF80E392E00E94F50730
:2006600062E080E392E00E94EF0722E030E04CEE51E56AE974E480E392E00E94711060E066
:2006800078EF80E392E00E94F50763E080E392E00E94EF0740E150E06DEA7EED80E392E0E8
:2006A0000E94700F80E392E00E94AA0E60EE77E080E392E00E94F50764E080E392E00E9417
:2006C000EF0767E171E080E392E00E94AE0E62E080E392E00E94EF076DE171E080E392E035
:2006E0000E94AE0E61E080E392E00E94EF076DE271E080E392E00E94AE0E68E471E080E31B
:2007000092E00E94AE0E63E671E080E392E00E94AE0E6FE771E080E392E00E94AE0E63E916
:2007200071E080E392E00E94AE0E66EA71E080E392E00E94AE0E60EC71E080E392E00E944D
:20074000AE0E42E350E067E170E080E392E00C94110960912E0270912F0280E392E00E9497
:20076000440980912E0290912F02813A91052CF010922F0210922E0205C0019690932F02D7
:2007800080932E026AE070E080E090E00C946A0D2FEF49E06AE080E392E00C942B082F929B
:2007A0003F924F925F926F927F928F929F92AF92BF92CF92DF92EF92FF920F931F93CF9306
:2007C000DF9300D000D0CDB7DEB74C017C836B836A015901C8018701AC014C195D0957FFD0
:2007E00003C051954195510995016B817C81261B370B37FF03C03195219531092224239472
:20080000312C2417350714F0212C312C2114310459F03A2D2B2D5C01832F922F3B812C81AB
:20082000DC82CB82C32ED22EAB81BC81AA16BB065CF43C2D2D2D6C01832F922F3B812C81D6
:20084000BC82AB82A32EB22E2501EB81FC814E1A5F0A3C016C187D0877FE03C07194619424
:200860007108720157FE03C0FFEFEF1AFF0AF594E794C816D9062CF421E030E03A83298319
:2008800024C06FEF7FEF7A8369831FC0D401ED91FC910480F581E02D980121143104D9F02D
:2008A0004B815C81B601C4010995E618F708F7FE06C0E981FA81CE0EDF1EE40CF51C2B8152
:2008C0003C812F5F3F4F3C832B836B817C81A616B706E4F604C0A6016B817C81E4CF0F90F0
:2008E0000F900F900F90DF91CF911F910F91FF90EF90DF90CF90BF90AF909F908F907F9034
:200900006F905F904F903F902F9008956F927F928F929F92AF92BF92CF92DF92EF92FF9205
:200920000F931F93CF93DF93EC015B016A0139014801E881F9810284F385E02D8701099544
:20094000E881F981A601480D591D415051090284F385E02D9301B501CE010995E881F981B2
:200960000084F185E02D9401A601B501CE010995E881F981B501660D771D615071090084C2
:20098000F185E02D9401A601CE010995DF91CF911F910F91FF90EF90DF90CF90BF90AF90A1
:2009A0009F908F907F906F900895EF92FF920F931F93DC01ED91FC91240F351F21503109BE
:2009C0000680F781E02D780189019B0109951F910F91FF90EF900895EF92FF920F931F936E
:2009E000DC01ED91FC91260F371F215031090680F781E02D78018A0109951F910F91FF904D
:200A0000EF9008956F927F928F929F92AF92BF92CF92DF92EF92FF920F931F93CF93DF93B8
:200A20005C014A0169013801EB01C60ED71ECC15DD0574F4D501ED91FC910084F185E02DA3
:200A400087019301A401BE01C50109952196EFCFDF91CF911F910F91FF90EF90DF90CF9041
:200A6000BF90AF909F908F907F906F900895EF92FF920F931F93DC01ED91FC9111971A9649
:200A80000D911C911B9718962D913C9119970684F785E02D7B0140E050E060E070E0099563
:200AA0001F910F91FF90EF9008950895FC011382128284ED91E091838083758364835783C6
:200AC00046837187608753874287158A158614861786168621E0248B8FEF9FEF938B828BD7
:200AE000918B808B268B178A118E108E08952F923F924F925F926F927F928F929F92AF929A
:200B0000BF92CF92DF92EF92FF920F931F93CF93DF93CDB7DEB76A970FB6F894DEBF0FBEA3
:200B2000CDBF1C0158874F831C870B87FA86E986CC82DC0158964D915C91599741155105B7
:200B400009F0A6C018968D919C911997681779070CF056C11A968D919C911B97EF81F885E1
:200B6000E817F9070CF04CC1D12CCB013C81F6E03F9F800D911D1124181619060CF040C179
:200B8000C60103E0880F991F0A95E1F74F815885840F951F181619060CF032C157968C91AB
:200BA000811103C0203B08F02F5F7E876D874B01198218E6A12E10E0B12EA61AB70A55E0CD
:200BC000259FA00CB11C11248981853039F0ED85FE85EA0DFB1D94919A8301C01A826F8029
:200BE00078842301A8E0AD83BA81B0FF12C0D101ED91FC91BC81B13031F40480F581E02D3A
:200C00002B853C8518C00684F785E02DEB84FC841DC0E985FA852B853C85E217F307E1F08A
:200C2000D101ED91FC91BC81B13059F40480F581E02D29853A85A2016D857E85C101099500
:200C40000BC00684F785E02DE984FA8486019601A301B401C1010995EA81E695EA83FD8123
:200C6000F150FD836C0C7D1C2FEF421A520AF111BBCF39813F5F39838C0C9D1C4D855E8526
:200C80004F5F5F4F5E874D87363009F09DCFB8C0FA0134963491329785919491231BA7E0A9
:200CA0002A9F800D911D1124FA0125913491398B288BFC01459154915A8F498FFC013296D0
:200CC000549159873196A491AF873196E491FC013596249131968491BC81B23050F0622E99
:200CE000772467FC7094E82FFF27E7FDF095FE87ED87FC81CF2ED12C6C9C40016D9C900CEE
:200D00007C9C900C1124860E971EA12C1982DE8ACD8AAB01420F511D27FD5A955E834D834B
:200D2000AF81B885A80FB11D87FDBA95B88FAF8B59818F85581708F063C0852F90E02D851F
:200D40003E85280F391F2C9DD0012D9DB00D3C9DB00D1124EF81F885EA0FFB1FFB83EA836A
:200D60006D807E802401FA2D2D81F21BFA8B4F89588D480F591F5C8B4B8B9A89960D862D3A
:200D80002D81821B39858317B0F5977061F4898D9A8D0196E889F989298D3A8DE20FF31F68
:200DA000B4909A8F898FB7FE1DC0D101ED91FC91BC81B13059F40480F581E02D2B853C855C
:200DC0004B895C89B301C10109950CC00684F785E02DEB84FC84860196014A815B81B20100
:200DE000C1010995BB0CED89FE894E0E5F1EFFEF6F1A7F0AC2CFA30E49814F5F498398CF09
:200E00006A960FB6F894DEBF0FBECDBFDF91CF911F910F91FF90EF90DF90CF90BF90AF9001
:200E20009F908F907F906F905F904F903F902F900895AF92BF92CF92EF92FF920F931F9304
:200E4000CF93DF93EC01262F888D998D009709F042C06A3069F42C898E859F8538E0239FF2
:200E6000800D911D11249F878E871D861C86ABC06D3009F4A8C08E898823C1F03C898C85CC
:200E80009D8546E0349F800D911D112448855985841795075CF01D861C868E859F85E8E055
:200EA0003E9F800D911D11249F878E87EA88FB88088919894E855F856C857D85CC88CE01B5
:200EC0000E9477052C898C859D85F6E02F9F800D911D112441C06A3079F41D861C864C89D6
:200EE000FC01369684912E853F85489F200D311D11243F872E8767C06D3009F464C0AC01F9
:200F00004C5F5F4FFA013491631708F45CC03196E491E61708F457C0FA014491362F341B56
:200F2000FC013296A590B490F7E03F9FA00CB11C1124F5013296A4913196E491AA2311F013
:200F4000E1110DC0F5013496A4902C898C859D85A29E800D911D11249D878C8734C0F50125
:200F60003596E4913E89332309F13C89B0E0AE0FB11DE7FDBA953A9FA0013B9F500D112421
:200F80006C857D85460F571F68857985461757076CF01D861C86FC01369684914E855F85B7
:200FA000389F400D511D11245F874E87EA88FB88088919894E855F856C857D85CC88CE01BA
:200FC0000E947705BFCF81E090E0DF91CF911F910F91FF90EF90CF90BF90AF90089561116A
:200FE00001C061E0FC01648B0895FC01738B628B718B608B08958EBD0DB407FEFDCF089580
:2010000020916102222399F03FB7F89420916102213059F42DB320935F024DB320916002B3
:20102000209524232DBB3FBF02C030935F028CBD9DBD089580916102882361F09FB7F89456
:201040002091610280915F02213019F48DBB9FBF08958FBF0895EF92FF920F931F93CF93B6
:20106000DF931F92CDB7DEB77C01062F142F40E850E060E870E029830E9456058AE092E0CA
:20108000F7019183808304A315A3298126A30F90DF91CF911F910F91FF90EF9008950F9363
:2010A0001F93CF93DF931F92CDB7DEB78C0180915D0290915E0269830E940008D8019296CB
:2010C000ED91FC91939780819A969C919A979095982390839096ED91FC91919780819996D0
:2010E0009C919095982390836981862F0E94FB07D8019096ED91FC919197808199969C91FE
:20110000892B80830F90DF91CF911F910F910C941A08662311F061E201C060E20C944F08D0
:201120000F931F93CF93DF931F92CDB7DEB78C0180915D0290915E0269830E940008D801D0
:201140009296ED91FC91939790819A968C919A97982B90839096ED91FC9191978081999644
:201160009C919095982390836981862F0E94FB07D8019096ED91FC919197808199969C917D
:20118000892B80830F90DF91CF911F910F910C941A080F931F93CF93DF9300D0CDB7DEB706
:2011A0008C0180915D0290915E026A8379830E940008D8019296ED91FC91939790819A96A7
:2011C0008C919A97982B90839096ED91FC919197808199969C919095982390837981872F92
:2011E0000E94FB076A81862F0E94FB07D8019096ED91FC919197808199969C91892B8083C1
:201200000F900F90DF91CF911F910F910C941A08FC01828D611102C0877F01C08860828FAE
:201220000895CF92DF92EF92FF920F931F93CF93DF938C017B016A01C0EAD0E0C41BD50B78
:20124000C61BD70BD7FD17C063E30E944F08B701C8010E94C908BE01C8010E94C908B6013B
:20126000C801DF91CF911F910F91FF90EF90DF90CF900C94C908DF91CF911F910F91FF9089
:20128000EF90DF90CF9008950F931F93CF93DF93EC018B01613A710558F467E30E944F0823
:2012A000B801CE01DF91CF911F910F910C94C908DF91CF911F910F910895AF92BF92CF9265
:2012C000DF92EF92FF920F931F93CF93DF93EC017B016A0159016AE20E944F08B701CE0169
:2012E0000E94C908B501CE010E94C9086BE2CE010E944F08B601CE010E94C908B801CE01ED
:201300000E94C9086CE2CE01DF91CF911F910F91FF90EF90DF90CF90BF90AF900C944F08BC
:20132000CF92DF92EF92FF920F931F93CF93DF93EC016B017A01888599856817790794F41B
:201340008A859B85481759076CF48A019B0140E050E060E070E0CE010E945D09DD86CC86AC
:20136000FF86EE86DF91CF911F910F91FF90EF90DF90CF900895CF92DF92EF92FF920F9355
:201380001F93CF93DF937C016B0100EA10E020E830E040E050E060E070E00E945D09C0E064
:2013A000D0E5B601C7010E94C9082197D1F7DF91CF911F910F91FF90EF90DF90CF9008956D
:2013C0000C94BB09EF92FF920F931F93CF93DF93EC0179018885998568177907E4F48A85F7
:2013E0009B8548175907BCF477FD15C057FD13C08A010F5F1F4F9B012F5F3F4FCE010E945E
:201400005D09B701CE01DF91CF911F910F91FF90EF900C94C908DF91CF911F910F91FF9091
:20142000EF900895CF92DF92EF92FF920F931F93CF93DF93EC01790168018885998568170A
:20144000790764F58A859B85481759073CF59A012E0D3F1D821793071CF47C01E41AF50AA5
:201460008A010E0D1F1D015011099B01CE010E945D091E141F0444F4B601CE010E94C90826
:2014800081E0E81AF108F5CFDF91CF911F910F91FF90EF90DF90CF900C941A08DF91CF919E
:2014A0001F910F91FF90EF90DF90CF900895CF92DF92EF92FF920F931F93CF93DF93EC016A
:2014C00079016801888599856817790764F52A853B85421753073CF59B012E0D3F1D821787
:2014E00093071CF47C01E61AF70A9B012E0D3F1D215031098A01CE010E945D091E141F042F
:2015000044F4B601CE010E94C90881E0E81AF108F5CFDF91CF911F910F91FF90EF90DF90DD
:20152000CF900C941A08DF91CF911F910F91FF90EF90DF90CF900895AF92BF92CF92DF928D
:20154000EF92FF920F931F93CF93DF93EC016901580128853985621773070CF045C08A8533
:201560009B85481759070CF03FC0FB01EC0DFD1D2E173F071CF46901C61AD70A9A012A0DEA
:201580003B1D821793071CF45C01A41AB50A8A010A0D1B1D015011099B012C0D3D1D2150F1
:2015A0003109CE010E945D091A141B048CF48601B701CE01023011052CF00E94C908015017
:2015C0001109F6CF0E94C90881E0A81AB108ECCFDF91CF911F910F91FF90EF90DF90CF9026
:2015E000BF90AF900C941A08DF91CF911F910F91FF90EF90DF90CF90BF90AF900895CF9312
:20160000DF93EC0163706D8B623041F0633041F0613011F088E005C088E603C088EC01C0F4
:2016200088EA8A8F80E890E0998788879B878A876B8DCE010E94080966E3CE010E944F085A
:201640006A8DCE01DF91CF910C9490080F931F93CF93DF93EC0161E00E944F0864EF71E0C9
:2016600080E090E00E946A0D61E1CE010E944F0865E070E080E090E00E946A0D6AE3CE01DD
:201680000E944F0865E0CE010E94900865E070E080E090E00E946A0D66E2CE010E944F0875
:2016A00064E0CE010E94900861E070E080E090E00E946A0D62EFCE010E944F0861E0CE013A
:2016C0000E94900861E070E080E090E00E946A0D63E1CE010E944F0866EBCE010E944F0831
:2016E0006FEFCE010E94900866E0CE010E94900860EECE010E944F0807EF11E0F80161914C
:201700008F01CE010E949008F2E006301F07B1F761EECE010E944F0808EE11E0F801619171
:201720008F01CE010E949008F1E0073F1F07B1F761EBCE010E944F0868E0CE010E949008C6
:2017400062E0CE010E94900861E070E080E090E00E946A0D64EBCE010E944F0867E0CE0197
:201760000E94900861E070E080E090E00E946A0D60ECCE010E944F086AE0CE010E9490084E
:2017800062E0CE010E94900861E070E080E090E00E946A0D61ECCE010E944F0862E0CE015E
:2017A0000E94900861E070E080E090E00E946A0D65ECCE010E944F0860E5CE010E9490080E
:2017C00063E6CE010E94900861E070E080E090E00E946A0D67ECCE010E944F0860E0CE0113
:2017E0000E94900861E070E080E090E00E946A0D6AE2CE010E944F0860E070E0CE010E9420
:20180000C90860E870E0CE010E94C9086BE2CE010E944F0860E070E0CE010E94C90860EAEC
:2018200070E0CE010E94C90863E3CE010E944F0860E070E0CE010E94C90860EA70E0CE01CD
:201840000E94C90860E070E0CE010E94C9086B8DCE010E94080960E0CE010E94FF0A69E2C4
:20186000CE010E944F0861E070E080E090E00E946A0D6CE2CE010E944F0861E070E080E01F
:2018800090E00E946A0DE881F9810088F189E02D60E070E0CE01DF91CF911F910F910994B1
:2018A000CF93DF93EC011BA61CA661E08DA10E94F60D61E08CA10E94F60D4CA150E0FA01A5
:2018C000E057FA4FE491F0E0EE0FFF1FEC55FA4F8591949199A388A32DA130E0F901E057ED
:2018E000FA4F849190E0880F991F8C559A4FFC01859194919BA38AA3FA01E458FA4F449109
:2019000049A7F901E458FA4F24912AA70E94C70C80E580935D0281E080935E02E8A1F9A18F
:20192000908189A58095892380838EA18F3F09F161E00E94F60D61E08EA10E942F0E64EF25
:2019400071E080E090E00E946A0D60E08EA10E942F0E64EF71E080E090E00E946A0D61E031
:201960008EA10E942F0E64EF71E080E090E00E946A0D1A8E81E08B8FCE01DF91CF910C946A
:20198000260B80E580935D0210925E020895CF93CFB7F89480916202811127C0EAE9F5E096
:2019A0008491E6E8F5E09491E82FF0E0EE0FFF1FE255FA4FA591B4918C91892321F461E02E
:2019C0008AE00E942F0E61E08AE00E94F60D8CB580618CBD8CB580648CBD61E08DE00E9445
:2019E000F60D61E08BE00E94F60D809162028F5F80936202CFBFCF9108951F920F920FB617
:201A00000F9211242F933F938F939F93AF93BF938091640290916502A0916602B091670232
:201A20003091630223E0230F2D3720F40196A11DB11D05C026E8230F0296A11DB11D2093D4
:201A400063028093640290936502A0936602B09367028091680290916902A0916A02B091F2
:201A60006B020196A11DB11D8093680290936902A0936A02B0936B02BF91AF919F918F919C
:201A80003F912F910F900FBE0F901F9018953FB7F8948091680290916902A0916A02B091E8
:201AA0006B0226B5A89B05C02F3F19F00196A11DB11D3FBF6627782F892F9A2F620F711D8A
:201AC000811D911D42E0660F771F881F991F4A95D1F70895CF92DF92EF92FF92CF93DF9332
:201AE0006B017C010E94470DEB01C114D104E104F10489F00E9495100E94470D6C1B7D0BD2
:201B0000683E734090F381E0C81AD108E108F108C851DC4FEACFDF91CF91FF90EF90DF90A1
:201B2000CF900895789484B5826084BD84B5816084BD85B5826085BD85B5816085BDEEE657
:201B4000F0E0808181608083E1E8F0E01082808182608083808181608083E0E8F0E0808141
:201B600081608083E1EBF0E0808184608083E0EBF0E0808181608083EAE7F0E080818460F7
:201B800080838081826080838081816080838081806880831092C1000895833081F028F44B
:201BA000813099F08230A1F008958730A9F08830B9F08430D1F4809180008F7D03C0809170
:201BC00080008F7780938000089584B58F7702C084B58F7D84BD08958091B0008F7703C0A1
:201BE0008091B0008F7D8093B0000895CF93DF9390E0FC01E458FA4F2491FC01E057FA4FC0
:201C00008491882349F190E0880F991FFC01E255FA4FA591B4918C559A4FFC01C591D49191
:201C20009FB7611108C0F8948C91209582238C93888182230AC0623051F4F8948C91322F99
:201C4000309583238C938881822B888304C0F8948C91822B8C939FBFDF91CF9108950F9393
:201C60001F93CF93DF931F92CDB7DEB7282F30E0F901E859FA4F8491F901E458FA4F1491F0
:201C8000F901E057FA4F04910023C9F0882321F069830E94CD0D6981E02FF0E0EE0FFF1F51
:201CA000EC55FA4FA591B4919FB7F8948C91611103C01095812301C0812B8C939FBF0F9019
:201CC000DF91CF911F910F910895CF92DF92EF92FF920F931F93CF93DF937C016A01EB0167
:201CE00000E010E00C151D0571F06991D701ED91FC910190F081E02DC7010995892B19F061
:201D00000F5F1F4FEFCFC801DF91CF911F910F91FF90EF90DF90CF9008956115710581F06A
:201D2000DB010D900020E9F7AD0141505109461B570BDC01ED91FC910280F381E02D099446
:201D400080E090E00895DC01ED91FC910190F081E02D09946EE172E00C948D0E0F931F9352
:201D6000CF93DF93EC010E948D0E8C01CE010E94AA0E800F911FDF91CF911F910F910895B3
:201D80008F929F92AF92BF92CF92DF92EF92FF920F931F93CF93DF93CDB7DEB7A1970FB63D
:201DA000F894DEBF0FBECDBF7C01C42EE52FCB01D22E19A221E02D1510F02AE0D22E8E01BB
:201DC0000F5D1F4F8D2C912CA12CB12C6C2D7E2FA50194010E94B5128C2DD29E8019112428
:201DE000015011098A3014F4805D01C0895CF8018083211531054105510521F0C22EE32F1C
:201E0000CA01E4CFB801C7010E948D0EA1960FB6F894DEBF0FBECDBFDF91CF911F910F91E8
:201E2000FF90EF90DF90CF90BF90AF909F908F900895CF92DF92EF92FF920F931F93CF93B3
:201E4000DF93EC016A017B012115310579F4E881F9810190F081E02D642FDF91CF911F915E
:201E60000F91FF90EF90DF90CF9009942A303105E9F477FF1AC06DE20E94A30E8C014427F2
:201E80005527BA014C195D096E097F092AE0CE010E94C00E800F911FDF91CF911F910F9199
:201EA000FF90EF90DF90CF9008952AE0B701A601CE01DF91CF911F910F91FF90EF90DF90D4
:201EC000CF900C94C00E2115310541F4DC01ED91FC910190F081E02D642F09940C94C00EFF
:201EE0000F931F93CF93DF93EC019A01AB0160E070E00E94630F8C01CE010E94AA0E800F9D
:201F0000911FDF91CF911F910F9108954F925F926F927F928F929F92AF92BF92CF92DF92BA
:201F2000EF92FF920F931F93CF93DF93EC016A017B01B22E9A01AB01C701B6010E94B11288
:201F4000882319F061E272E027C026013701E89477F82FEF3FEF4FE75FE7C301B2010E9426
:201F6000B11281110DC02FEF3FEF4FE75FE7C301B2010E94FB1018161CF465E272E00CC0B0
:201F80002FEF3FEF4FE75FE4C701B6010E944A121816ACF469E272E0CE01DF91CF911F9145
:201FA0000F91FF90EF90DF90CF90BF90AF909F908F907F906F905F904F900C948D0E2FEF94
:201FC0003FEF4FE75FECC701B6010E94FB1087FDE1CF20E030E0A901C701B6010E94FB100C
:201FE00087FF0AC06DE2CE010E94A30E8C01F7FAF094F7F8F09402C000E010E0A12C60E00C
:2020000070E080E09FE3AB1441F020E030E040E251E40E94FF10A394F6CF9B01AC01C70179
:20202000B6010E9497106B017C010E946C112B013C010E9498119B01AC01C701B6010E947A
:2020400096106B017C012AE0B301A201CE010E94C00E080F191FBB2039F066E471E0CE0194
:202060000E948D0E080F191F7B2C772041F120E030E040E251E4C701B6010E944E126B0110
:202080007C010E9467114B01AA2497FCA094BA2C2AE030E0B501A401CE010E94190F080FBD
:2020A000191FC501B4010E949A119B01AC01C701B6010E9496106B017C017A94D6CFC801AB
:2020C000DF91CF911F910F91FF90EF90DF90CF90BF90AF909F908F907F906F905F904F904C
:2020E00008950F931F93CF93DF93EC010E94860F8C01CE010E94AA0E800F911FDF91CF9132
:202100001F910F9108950E94DD1208950E94920D0E9485100E940803C0E0D0E00E94A903E1
:202120002097E1F30E940000F9CF08955058BB27AA270ED075C166D130F06BD120F031F4D6
:202140009F3F11F41EF45BC10EF4E095E7FB51C1E92F77D180F3BA17620773078407950755
:2021600018F071F49EF58FC10EF4E0950B2EBA2FA02D0B01B90190010C01CA01A0011124A4
:20218000FF27591B99F0593F50F4503E68F11A16F040A22F232F342F4427585FF3CF4695B4
:2021A00037952795A795F0405395C9F77EF41F16BA0B620B730B840BBAF09150A1F0FF0F73
:2021C000BB1F661F771F881FC2F70EC0BA0F621F731F841F48F4879577956795B795F79525
:2021E0009E3F08F0B3CF9395880F08F09927EE0F979587950895D9D008F481E008950CD0B0
:202200000FC107D140F0FED030F021F45F3F19F0F0C0511139C1F3C014D198F39923C9F395
:202220005523B1F3951B550BBB27AA2762177307840738F09F5F5F4F220F331F441FAA1FBE
:20224000A9F333D00E2E3AF0E0E830D091505040E695001CCAF729D0FE2F27D0660F771FC0
:20226000881FBB1F261737074807AB07B0E809F0BB0B802DBF01FF2793585F4F2AF09E3FE7
:20228000510568F0B6C000C15F3FECF3983EDCF3869577956795B795F7959F5FC9F7880FE7
:2022A000911D9695879597F90895E1E0660F771F881FBB1F621773078407BA0720F0621BE3
:2022C000730B840BBA0BEE1F88F7E095089504D06894B111D9C00895BCD088F09F5790F04C
:2022E000B92F9927B751A0F0D1F0660F771F881F991F1AF0BA95C9F712C0B13081F0C3D0A3
:20230000B1E00895C0C0672F782F8827B85F39F0B93FCCF3869577956795B395D9F73EF4BF
:2023200090958095709561957F4F8F4F9F4F0895E89409C097FB3EF49095809570956195F3
:202340007F4F8F4F9F4F9923A9F0F92F96E9BB279395F695879577956795B795F111F8CF19
:20236000FAF4BB0F11F460FF1BC06F5F7F4F8F4F9F4F16C0882311F096E911C0772321F081
:202380009EE8872F762F05C0662371F096E8862F70E060E02AF09A95660F771F881FDAF71E
:2023A000880F9695879597F90895990F0008550FAA0BE0E8FEEF16161706E807F907C0F0AC
:2023C00012161306E407F50798F0621B730B840B950B39F40A2661F0232B242B252B21F473
:2023E00008950A2609F4A140A6958FEF811D811D089597F99F6780E870E060E008959FEFE7
:2024000080EC089500240A941616170618060906089500240A941216130614060506089519
:20242000092E0394000C11F4882352F0BB0F40F4BF2B11F460FF04C06F5F7F4F8F4F9F4F58
:20244000089557FD9058440F551F59F05F3F71F04795880F97FB991F61F09F3F79F0879523
:202460000895121613061406551FF2CF4695F1DF08C0161617061806991FF1CF869571054C
:20248000610508940895E894BB2766277727CB0197F908958ADF08F48FEF08950BD0C0CF31
:2024A000B1DF28F0B6DF18F0952309F0A2CFA7CF1124EACFC6DFA0F3959FD1F3950F50E04D
:2024C000551F629FF001729FBB27F00DB11D639FAA27F00DB11DAA1F649F6627B00DA11D66
:2024E000661F829F2227B00DA11D621F739FB00DA11D621F839FA00D611D221F749F3327E8
:20250000A00D611D231F849F600D211D822F762F6A2F11249F5750408AF0E1F088234AF0A6
:20252000EE0FFF1FBB1F661F771F881F91505040A9F79E3F510570F05CCFA6CF5F3FECF323
:20254000983EDCF3869577956795B795F795E7959F5FC1F7FE2B880F911D9695879597F964
:20256000089523DF880B990B0895A1E21A2EAA1BBB1BFD010DC0AA1FBB1FEE1FFF1FA21730
:20258000B307E407F50720F0A21BB30BE40BF50B661F771F881F991F1A9469F7609570959E
:2025A000809590959B01AC01BD01CF010895EE0FFF1F0590F491E02D099481E090E0F89431
:2025C0000C94E212F894FFCF00006C0280000100000048656C6C6F20576F726C6421004899
:2025E000656C6C6F004920696D706C6F726520746865652C006D7920666F6F6E74696E6772
:20260000207475726C696E6764726F6D65732E00416E6420686F6F7074696F75736C7920BB
:202620006472616E676C65206D650077697468206372696E6B6C792062696E646C65777579
:2026400072646C65732C004F7220492077696C6C2072656E64207468656500696E207468D0
:202660006520676F6262657277617274730077697468206D7920626C7572676C656372751A
:202680006E6368656F6E2C00736565206966204920646F6E27742100000000001907650E4E
:2026A0008310CF03D504EC04860402053705550509182D0D13154048530C1D252E24293F5F
:2026C000262330281055B74019101E020100000000001907650EE209CF03120A570A86045C
:2026E0009C0AE00989080D0A006E616E00696E66006F76660000FFFFFFFFFFFFFFFFFFFFE8
:20270000B201AF81B885ED91FC9111979401261B370B2F5F3F4F0284F385E02D0D891E896A
:20272000A301CD01099552C1C201881999092DA53EA526193709FB01E819F909FA87E9874C
:2027400049815A81461957095E874D87DB01A419B509BA8BA98BE981FA814DA55EA5E41BB3
:20276000F50BF88FEF8B69817A814617570729F0415051095C8F4B8F04C0ADA5BEA5BC8F2B
:20278000AB8F1301A12CB12C65011B821C821D821E82A901662757FD6095762F4D8F5E8F73
:2027A0006F8F78A32D853E85442737FD4095542F29A33AA34BA35CA3AC01662757FD60957B
:2027C000762F4DA35EA36FA378A769857A85882777FD8095982F69A77AA78BA79CA7EB8D28
:2027E000FC8DE215F3050CF44EC06B817C818D819E812D8D3E8D4F8D58A10E942724740181
:20280000E20EF31EC601B50129A13AA14BA15CA10E942724B401620F731F8B819C81AD81B0
:20282000BE812DA13EA14FA158A5820F931FA41FB51F8B839C83AD83BE8389A59AA5ABA58A
:20284000BCA5A80EB91ECA1EDB1E6E157F052CF0962F872FB701E92EF82EAF81B885ED912B
:20286000FC9111979701261B370B2F5F3F4F0284F385E02D0D891E89A101CD010995BFEFE8
:202880002B1A3B0AACCF91014DA55EA5241B350B69897A89629FC001639F900D729F900D29
:2028A00011249C01442737FD4095542F2B833C834D835E83C1018619970949855A85489F9C
:2028C0006001499FD00C589FD00C1124EE24D7FCE094FE2C6F89788D882777FD8095982F4C
:2028E0006F8B788F898F9A8F8D859E85AA2797FDA095BA2F8D879E87AF87B88B29893A89B7
:20290000442737FD4095542F298B3A8B4B8B5C8B49855A85662757FD6095762F49875A87B1
:202920006B877C87E981FA81E215F3050CF44EC06B817C818D819E812F89388D498D5A8D70
:202940000E9427245201A20EB31EC701B6012D853E854F8558890E942724B401620F731F68
:202960008B819C81AD81BE8129893A894B895C89820F931FA41FB51F8B839C83AD83BE831B
:2029800089859A85AB85BC85C80ED91EEA1EFB1E6A157B052CF0962F872FB501A92EB82EA2
:2029A000AF81B885ED91FC9111979501261B370B2F5F3F4F0284F385E02D0D891E89A101D8
:2029C000CD010995BFEF2B1A3B0AACCFAE960FB6F894DEBF0FBECDBFDF91CF911F910F912D
:2029E000FF90EF90DF90CF90BF90AF909F908F907F906F905F904F903F902F9008952F9257
:202A00003F924F925F926F927F928F929F92AF92BF92CF92DF92EF92FF920F931F93CF9383
:202A2000DF93CDB7DEB76A970FB6F894DEBF0FBECDBF1C0158874F831C870B87FA86E986D1
:202A4000CC82DC0158964D915C9159974115510509F0A6C018968D919C91199768177907EF
:202A60000CF056C11A968D919C911B97EF81F885E817F9070CF04CC1D12CCB013C81F6E045
:202A80003F9F800D911D1124181619060CF040C1C60103E0880F991F0A95E1F74F81588581
:202AA000840F951F181619060CF032C157968C91811103C0203B08F02F5F7E876D874B010E
:202AC00019821DEEA12E11E0B12EA61AB70A55E0259FA00CB11C11248981853039F0ED852F
:202AE000FE85EA0DFB1D94919A8301C01A826F8078842301A8E0AD83BA81B0FF12C0D10150
:202B0000ED91FC91BC81B13031F40480F581E02D2B853C8518C00684F785E02DEB84FC8415
:202B20001DC0E985FA852B853C85E217F307E1F0D101ED91FC91BC81B13059F40480F58154
:202B4000E02D29853A85A2016D857E85C10109950BC00684F785E02DE984FA84860196011C
:202B6000A301B401C1010995EA81E695EA83FD81F150FD836C0C7D1C2FEF421A520AF11121
:202B8000BBCF39813F5F39838C0C9D1C4D855E854F5F5F4F5E874D87363009F09DCFB8C039
:202BA000FA0134963491329785919491231BA7E02A9F800D911D1124FA0125913491398B4F
:202BC000288BFC01459154915A8F498FFC013296549159873196A491AF873196E491FC01D4
:202BE0003596249131968491BC81B23050F0622E772467FC7094E82FFF27E7FDF095FE875D
:202C0000ED87FC81CF2ED12C6C9C40016D9C900C7C9C900C1124860E971EA12C1982DE8AD9
:202C2000CD8AAB01420F511D27FD5A955E834D83AF81B885A80FB11D87FDBA95B88FAF8BC8
:202C400059818F85581708F063C0852F90E02D853E85280F391F2C9DD0012D9DB00D3C9DDA
:202C6000B00D1124EF81F885EA0FFB1FFB83EA836D807E802401FA2D2D81F21BFA8B4F8928
:202C8000588D480F591F5C8B4B8B9A89960D862D2D81821B39858317B0F5977061F4898D90
:202CA0009A8D0196E889F989298D3A8DE20FF31FB4909A8F898FB7FE1DC0D101ED91FC91EF
:202CC000BC81B13059F40480F581E02D2B853C854B895C89B301C10109950CC00684F78572
:202CE000E02DEB84FC84860196014A815B81B201C1010995BB0CED89FE894E0E5F1EFFEF75
:202D00006F1A7F0AC2CFA30E49814F5F498398CF6A960FB6F894DEBF0FBECDBFDF91CF919D
:202D20001F910F91FF90EF90DF90CF90BF90AF909F908F907F906F905F904F903F902F9021
:202D40000895AF92BF92CF92EF92FF920F931F93CF93DF93EC01262F888D998D009709F09C
:202D600042C06A3069F42C898E859F8538E0239F800D911D11249F878E871D861C86ABC039
:202D80006D3009F4A8C08E898823C1F03C898C859D8546E0349F800D911D112448855985B2
:202DA000841795075CF01D861C868E859F85E8E03E9F800D911D11249F878E87EA88FB88CF
:202DC000088919894E855F856C857D85CC88CE010E94FF142C898C859D85F6E02F9F800D25
:202DE000911D112441C06A3079F41D861C864C89FC01369684912E853F85489F200D311D17
:202E000011243F872E8767C06D3009F464C0AC014C5F5F4FFA013491631708F45CC03196FE
:202E2000E491E61708F457C0FA014491362F341BFC013296A590B490F7E03F9FA00CB11C1D
:202E40001124F5013296A4913196E491AA2311F0E1110DC0F5013496A4902C898C859D85A5
:202E6000A29E800D911D11249D878C8734C0F5013596E4913E89332309F13C89B0E0AE0F18
:202E8000B11DE7FDBA953A9FA0013B9F500D11246C857D85460F571F6885798546175707E7
:202EA0006CF01D861C86FC01369684914E855F85389F400D511D11245F874E87EA88FB8865
:202EC000088919894E855F856C857D85CC88CE010E94FF14BFCF81E090E0DF91CF911F915E
:202EE0000F91FF90EF90CF90BF90AF900895611101C061E0FC01648B0895FC01738B628BB5
:202F0000718B608B0895FC01808591850895FC018285938508958EBD0DB407FEFDCF089545
:202F20002091A802222399F03FB7F8942091A802213059F42DB32093A6024DB32091A70258
:202F4000209524232DBB3FBF02C03093A6028CBD9DBD08958091A802882361F09FB7F89489
:202F60002091A8028091A602213019F48DBB9FBF08958FBF0895EF92FF920F931F93CF93E9
:202F8000DF931F92CDB7DEB77C01062F142F40E850E060E870E029830E94450E85E492E094
:202FA000F7019183808304A315A3298126A30F90DF91CF911F910F91FF90EF9008950F9324
:202FC0001F93CF93DF931F92CDB7DEB78C018091AA029091AB0269830E949017D801929653
:202FE000ED91FC91939780819A969C919A979095982390839096ED91FC9191978081999691
:203000009C919095982390836981862F0E948B17D8019096ED91FC919197808199969C911E
:20302000892B80830F90DF91CF911F910F910C94AA17662311F061E201C060E20C94DF1753
:203040000F931F93CF93DF931F92CDB7DEB78C018091AA029091AB0269830E949017D80158
:203060009296ED91FC91939790819A968C919A97982B90839096ED91FC9191978081999605
:203080009C919095982390836981862F0E948B17D8019096ED91FC919197808199969C919E
:2030A000892B80830F90DF91CF911F910F910C94AA170F931F93CF93DF9300D0CDB7DEB728
:2030C0008C018091AA029091AB026A8379830E949017D8019296ED91FC91939790819A962F
:2030E0008C919A97982B90839096ED91FC919197808199969C919095982390837981872F53
:203100000E948B176A81862F0E948B17D8019096ED91FC919197808199969C91892B808341
:203120000F900F90DF91CF911F910F910C94AA17FC0184A50895FC01828D611102C0877FC7
:2031400001C08860828F0895AF92BF92CF92DF92EF92FF920F931F93CF93DF93EC017B0111
:203160006A0159016AE20E94DF17B701CE010E945918B501CE010E9459186BE2CE010E94B6
:20318000DF17B601CE010E945918B801CE010E9459186CE2CE01DF91CF911F910F91FF9039
:2031A000EF90DF90CF90BF90AF900C94DF17CF92DF92EF92FF920F931F93CF93DF93EC01A5
:2031C0006B017A01888599856817790794F48A859B85481759076CF48A019B0140E050E091
:2031E00060E070E0CE010E94A418DD86CC86FF86EE86DF91CF911F910F91FF90EF90DF90C7
:20320000CF900895CF92DF92EF92FF920F931F93CF93DF937C016B0100EA10E020E830E0CB
:2032200040E050E060E070E00E94A418C0E0D0E5B601C7010E9459182197D1F7DF91CF9119
:203240001F910F91FF90EF90DF90CF9008950C940219EF92FF920F931F93CF93DF93EC01C3
:2032600079018885998568177907E4F48A859B8548175907BCF477FD15C057FD13C08A0139
:203280000F5F1F4F9B012F5F3F4FCE010E94A418B701CE01DF91CF911F910F91FF90EF90B8
:2032A0000C945918DF91CF911F910F91FF90EF900895CF92DF92EF92FF920F931F93CF9398
:2032C000DF93EC0179016801888599856817790764F58A859B85481759073CF59A012E0D34
:2032E0003F1D821793071CF47C01E41AF50A8A010E0D1F1D015011099B01CE010E94A4189F
:203300001E141F0444F4B601CE010E94591881E0E81AF108F5CFDF91CF911F910F91FF90B8
:20332000EF90DF90CF900C94AA17DF91CF911F910F91FF90EF90DF90CF900895CF92DF9274
:20334000EF92FF920F931F93CF93DF93EC0179016801888599856817790764F52A853B8571
:20336000421753073CF59B012E0D3F1D821793071CF47C01E61AF70A9B012E0D3F1D2150D1
:2033800031098A01CE010E94A4181E141F0444F4B601CE010E94591881E0E81AF108F5CFF5
:2033A000DF91CF911F910F91FF90EF90DF90CF900C94AA17DF91CF911F910F91FF90EF9082
:2033C000DF90CF900895AF92BF92CF92DF92EF92FF920F931F93CF93DF93EC016901580134
:2033E00028853985621773070CF045C08A859B85481759070CF03FC0FB01EC0DFD1D2E1731
:203400003F071CF46901C61AD70A9A012A0D3B1D821793071CF45C01A41AB50A8A010A0D42
:203420001B1D015011099B012C0D3D1D21503109CE010E94A4181A141B048CF48601B701D6
:20344000CE01023011052CF00E94591801501109F6CF0E94591881E0A81AB108ECCFDF91DC
:20346000CF911F910F91FF90EF90DF90CF90BF90AF900C94AA17DF91CF911F910F91FF9022
:20348000EF90DF90CF90BF90AF900895CF93DF93EC0163706D8B623041F0633041F0613010
:2034A00011F088E005C088E603C088EC01C088EA8A8F80E890E0998788879B878A876B8DBB
:2034C000CE010E949B1866E3CE010E94DF176A8DCE01DF91CF910C9420180F931F93CF93F4
:2034E000DF93EC0161E00E94DF1764EF71E080E090E00E94871C61E1CE010E94DF1765E0ED
:2035000070E080E090E00E94871C6AE3CE010E94DF1765E0CE010E94201865E070E080E0AF
:2035200090E00E94871C66E2CE010E94DF1764E0CE010E94201861E070E080E090E00E9437
:20354000871C62EFCE010E94DF1761E0CE010E94201861E070E080E090E00E94871C63E13C
:20356000CE010E94DF1766EBCE010E94DF176FEFCE010E94201866E0CE010E94201860EEE8
:20358000CE010E94DF1702E312E0F80161918F01CE010E942018F2E001341F07B1F761EEA5
:2035A000CE010E94DF1703E212E0F80161918F01CE010E942018F2E002331F07B1F761EB88
:2035C000CE010E94DF1768E0CE010E94201862E0CE010E94201861E070E080E090E00E94A5
:2035E000871C64EBCE010E94DF1767E0CE010E94201861E070E080E090E00E94871C60EC90
:20360000CE010E94DF176AE0CE010E94201862E0CE010E94201861E070E080E090E00E9462
:20362000871C61ECCE010E94DF1762E0CE010E94201861E070E080E090E00E94871C65EC51
:20364000CE010E94DF1760E5CE010E94201863E6CE010E94201861E070E080E090E00E9420
:20366000871C67ECCE010E94DF1760E0CE010E94201861E070E080E090E00E94871C6AE212
:20368000CE010E94DF1760E070E0CE010E94591860E870E0CE010E9459186BE2CE010E9419
:2036A000DF1760E070E0CE010E94591860EA70E0CE010E94591863E3CE010E94DF1760E039
:2036C00070E0CE010E94591860EA70E0CE010E94591860E070E0CE010E9459186B8DCE0103
:2036E0000E949B1860E0CE010E94461A69E2CE010E94DF1761E070E080E090E00E94871C0C
:203700006CE2CE010E94DF1761E070E080E090E00E94871CE881F9810088F189E02D60E01C
:2037200070E0CE01DF91CF911F910F910994CF93DF93EC011BA61CA661E08DA10E94131D28
:2037400061E08CA10E94131D4CA150E0FA01EB5EF84FE491F0E0EE0FFF1FE75DF84F859180
:20376000949199A388A32DA130E0F901EB5EF84F849190E0880F991F875D984FFC018591A3
:2037800094919BA38AA3FA01EF5FF84F449149A7F901EF5FF84F24912AA70E94880C80E594
:2037A0008093AA0281E08093AB02E8A1F9A1908189A58095892380838EA18F3F09F161E0CB
:2037C0000E94131D61E08EA10E944C1D64EF71E080E090E00E94871C60E08EA10E944C1D69
:2037E00064EF71E080E090E00E94871C61E08EA10E944C1D64EF71E080E090E00E94871CDC
:203800001A8E81E08B8FCE01DF91CF910C946D1A80E58093AA021092AB0208951F920F925D
:203820000FB60F9211242F933F938F939F93AF93BF938091AD029091AE02A091AF02B091BD
:20384000B0023091AC0223E0230F2D3720F40196A11DB11D05C026E8230F0296A11DB11D4E
:203860002093AC028093AD029093AE02A093AF02B093B0028091B1029091B202A091B302FA
:20388000B091B4020196A11DB11D8093B1029093B202A093B302B093B402BF91AF919F91D0
:2038A0008F913F912F910F900FBE0F901F9018952FB7F8946091AD027091AE028091AF026C
:2038C0009091B0022FBF08953FB7F8948091B1029091B202A091B302B091B40226B5A89B74
:2038E00005C02F3F19F00196A11DB11D3FBF6627782F892F9A2F620F711D811D911D42E049
:20390000660F771F881F991F4A95D1F70895CF92DF92EF92FF92CF93DF936B017C010E94B6
:20392000641CEB01C114D104E104F10489F00E94E5210E94641C6C1B7D0B683E734090F369
:2039400081E0C81AD108E108F108C851DC4FEACFDF91CF91FF90EF90DF90CF900895789417
:2039600084B5826084BD84B5816084BD85B5826085BD85B5816085BDEEE6F0E0808181604F
:203980008083E1E8F0E01082808182608083808181608083E0E8F0E0808181608083E1EBE5
:2039A000F0E0808184608083E0EBF0E0808181608083EAE7F0E08081846080838081826063
:2039C00080838081816080838081806880831092C1000895833081F028F4813099F08230E7
:2039E000A1F008958730A9F08830B9F08430D1F4809180008F7D03C0809180008F77809365
:203A00008000089584B58F7702C084B58F7D84BD08958091B0008F7703C08091B0008F7D0E
:203A20008093B0000895CF93DF9390E0FC01EF5FF84F2491FC01EB5EF84F8491882349F114
:203A400090E0880F991FFC01ED5CF84FA591B491875D984FFC01C591D4919FB7611108C08C
:203A6000F8948C91209582238C93888182230AC0623051F4F8948C91322F309583238C9341
:203A80008881822B888304C0F8948C91822B8C939FBFDF91CF9108950F931F93CF93DF9339
:203AA0001F92CDB7DEB7282F30E0F901E351F94F8491F901EF5FF84F1491F901EB5EF84F8C
:203AC00004910023C9F0882321F069830E94EA1C6981E02FF0E0EE0FFF1FE75DF84FA59180
:203AE000B4919FB7F8948C91611103C01095812301C0812B8C939FBF0F90DF91CF911F91FB
:203B00000F910895FC01818D228D90E0805C9F4F821B91098F7399270895FC01918D828DB4
:203B2000981731F0828DE80FF11D858D90E008958FEF9FEF0895FC01918D828D981761F0AF
:203B4000828DDF01A80FB11D5D968C91928D9F5F9F73928F90E008958FEF9FEF08958FE16B
:203B60009FE1892B49F080E090E0892B29F00E941F1F81110C9400000895FC01848DDF019E
:203B8000A80FB11DA35ABF4F2C91848D90E001968F739927848FA689B7892C93A089B1895A
:203BA0008C9180648C93938D848D981306C00288F389E02D80818F7D80830895CF93DF93AF
:203BC000EC01888D8823C9F0EA89FB89808185FD05C0A889B9898C9186FD0FC00FB607FC96
:203BE000F5CF808185FFF2CFA889B9898C9185FFEDCFCE010E94BD1DE7CFDF91CF9108957D
:203C0000CF92DF92FF920F931F93CF93DF931F92CDB7DEB76C0181E0D60158968C935897AE
:203C20005B969C915B975C968C915C97981307C05096ED91FC915197808185FD2EC0F601BF
:203C4000038D10E00F5F1F4F0F731127F02EF601848DF81211C00FB607FCF9CFD601509600
:203C6000ED91FC915197808185FFF1CFC60169830E94BD1D6981EBCF838DE80FF11DE35AE7
:203C8000FF4F6083D6015B960C935B975296ED91FC915397808180620CC0D6015696ED91CD
:203CA000FC91579760835096ED91FC91519780818064808381E090E00F90DF91CF911F91F5
:203CC0000F91FF90DF90CF900895BF92CF92DF92EF92FF92CF93DF93EC016A017B01B22E8D
:203CE000E889F98982E08083411581EE580761057105A1F060E079E08DE390E0A701960123
:203D00000E94052421503109410951095695479537952795211580E1380798F0E889F989E9
:203D2000108260E874E88EE190E0A70196010E940524215031094109510956954795379582
:203D40002795EC85FD853083EE85FF852083188EEC89FD89B082EA89FB89808180618083B8
:203D6000EA89FB89808188608083EA89FB89808180688083EA89FB8980818F7D8083DF9106
:203D8000CF91FF90EF90DF90CF90BF9008951F920F920FB60F9211242F938F939F93EF9376
:203DA000FF93E091C502F091C6028081E091CB02F091CC0282FD12C090818091CE028F5F31
:203DC0008F732091CF02821751F0E091CE02F0E0EB54FD4F958F8093CE0201C08081FF9190
:203DE000EF919F918F912F910F900FBE0F901F9018951F920F920FB60F9211242F933F934B
:203E00004F935F936F937F938F939F93AF93BF93EF93FF9385EB92E00E94BD1DFF91EF9150
:203E2000BF91AF919F918F917F916F915F914F913F912F910F900FBE0F901F90189585EB5B
:203E400092E00E94821D21E0892B09F420E0822F08951092B8021092B70288EE93E0A0E08F
:203E6000B0E08093B9029093BA02A093BB02B093BC028DE592E09093B6028093B50285EC1A
:203E800090E09093C2028093C10284EC90E09093C4028093C30280EC90E09093C60280937A
:203EA000C50281EC90E09093C8028093C70282EC90E09093CA028093C90286EC90E09093E5
:203EC000CC028093CB021092CE021092CF021092D0021092D1020895CF92DF92EF92FF92E5
:203EE0000F931F93CF93DF937C016A01EB0100E010E00C151D0571F06991D701ED91FC9175
:203F00000190F081E02DC7010995892B19F00F5F1F4FEFCFC801DF91CF911F910F91FF905D
:203F2000EF90DF90CF9008956115710581F0DB010D900020E9F7AD0141505109461B570B65
:203F4000DC01ED91FC910280F381E02D099480E090E00895EF92FF920F931F93CF93DF9332
:203F60008C017B01C0E0D0E0F701EC0FFD1F6491662359F0F801A081B181ED91FC91C801F2
:203F80000995892B11F02196EFCFCE01DF91CF911F910F91FF90EF9008950C94941FDC018F
:203FA000ED91FC910190F081E02D099469E672E00C94941F0F931F93CF93DF93EC010E949F
:203FC000AA1F8C01CE010E94D61F800F911FDF91CF911F910F9108950F931F93CF93DF9301
:203FE000EC010E94941F8C01CE010E94D61F800F911FDF91CF911F910F9108958F929F923E
:20400000AF92BF92CF92DF92EF92FF920F931F93CF93DF93CDB7DEB7A1970FB6F894DEBFC3
:204020000FBECDBF7C01C42EE52FCB01D22E19A221E02D1510F02AE0D22E8E010F5D1F4F67
:204040008D2C912CA12CB12C6C2D7E2FA50194010E9405248C2DD29E801911240150110992
:204060008A3014F4805D01C0895CF8018083211531054105510521F0C22EE32FCA01E4CF66
:20408000B801C7010E94941FA1960FB6F894DEBF0FBECDBFDF91CF911F910F91FF90EF909E
:2040A000DF90CF90BF90AF909F908F900895CF92DF92EF92FF920F931F93CF93DF93EC01C0
:2040C0006A017B012115310579F4E881F9810190F081E02D642FDF91CF911F910F91FF90EC
:2040E000EF90DF90CF9009942A303105E9F477FF1AC06DE20E94CF1F8C0144275527BA010B
:204100004C195D096E097F092AE0CE010E94FE1F800F911FDF91CF911F910F91FF90EF90D0
:20412000DF90CF9008952AE0B701A601CE01DF91CF911F910F91FF90EF90DF90CF900C9440
:20414000FE1F2115310541F4DC01ED91FC910190F081E02D642F09940C94FE1F0F931F9369
:20416000CF93DF93EC019A01AB0160E070E00E94A1208C01CE010E94D61F800F911FDF91A2
:20418000CF911F910F9108950F931F93CF93DF93EC010E94A1208C01CE010E94D61F800FD8
:2041A000911FDF91CF911F910F9108954F925F926F927F928F929F92AF92BF92CF92DF92F8
:2041C000EF92FF920F931F93CF93DF93EC016A017B01B22E9A01AB01C701B6010E94012464
:2041E000882319F06CE672E027C026013701E89477F82FEF3FEF4FE75FE7C301B2010E9455
:20420000012481110DC02FEF3FEF4FE75FE7C301B2010E944B2218161CF460E772E00CC029
:204220002FEF3FEF4FE75FE4C701B6010E949A231816ACF464E772E0CE01DF91CF911F9121
:204240000F91FF90EF90DF90CF90BF90AF909F908F907F906F905F904F900C94941F2FEFB9
:204260003FEF4FE75FECC701B6010E944B2287FDE1CF20E030E0A901C701B6010E944B2285
:2042800087FF0AC06DE2CE010E94CF1F8C01F7FAF094F7F8F09402C000E010E0A12C60E00C
:2042A00070E080E09FE3AB1441F020E030E040E251E40E944F22A394F6CF9B01AC01C70155
:2042C000B6010E94E7216B017C010E94BC222B013C010E94E8229B01AC01C701B6010E9495
:2042E000E6216B017C012AE0B301A201CE010E94FE1F080F191FBB2039F062E471E0CE0126
:204300000E94941F080F191F7B2C772041F120E030E040E251E4C701B6010E949E236B01D4
:204320007C010E94B7224B01AA2497FCA094BA2C2AE030E0B501A401CE010E945720080F4A
:20434000191FC501B4010E94EA229B01AC01C701B6010E94E6216B017C017A94D6CFC80126
:20436000DF91CF911F910F91FF90EF90DF90CF90BF90AF909F908F907F906F905F904F9089
:2043800008950F931F93CF93DF93EC010E94D6208C01CE010E94D61F800F911FDF91CF91D1
:2043A0001F910F9108950E944C2408950E94AF1C0E94D5210E941B0BCFEADDE10E94DD049A
:2043C0002097E1F30E94AF1DF9CF08955058BB27AA270ED075C166D130F06BD120F031F448
:2043E0009F3F11F41EF45BC10EF4E095E7FB51C1E92F77D180F3BA17620773078407950793
:2044000018F071F49EF58FC10EF4E0950B2EBA2FA02D0B01B90190010C01CA01A0011124E1
:20442000FF27591B99F0593F50F4503E68F11A16F040A22F232F342F4427585FF3CF4695F1
:2044400037952795A795F0405395C9F77EF41F16BA0B620B730B840BBAF09150A1F0FF0FB0
:20446000BB1F661F771F881FC2F70EC0BA0F621F731F841F48F4879577956795B795F79562
:204480009E3F08F0B3CF9395880F08F09927EE0F979587950895D9D008F481E008950CD0ED
:2044A0000FC107D140F0FED030F021F45F3F19F0F0C0511139C1F3C014D198F39923C9F3D3
:2044C0005523B1F3951B550BBB27AA2762177307840738F09F5F5F4F220F331F441FAA1FFC
:2044E000A9F333D00E2E3AF0E0E830D091505040E695001CCAF729D0FE2F27D0660F771FFE
:20450000881FBB1F261737074807AB07B0E809F0BB0B802DBF01FF2793585F4F2AF09E3F24
:20452000510568F0B6C000C15F3FECF3983EDCF3869577956795B795F7959F5FC9F7880F24
:20454000911D9695879597F90895E1E0660F771F881FBB1F621773078407BA0720F0621B20
:20456000730B840BBA0BEE1F88F7E095089504D06894B111D9C00895BCD088F09F5790F089
:20458000B92F9927B751A0F0D1F0660F771F881F991F1AF0BA95C9F712C0B13081F0C3D0E0
:2045A000B1E00895C0C0672F782F8827B85F39F0B93FCCF3869577956795B395D9F73EF4FD
:2045C00090958095709561957F4F8F4F9F4F0895E89409C097FB3EF4909580957095619531
:2045E0007F4F8F4F9F4F9923A9F0F92F96E9BB279395F695879577956795B795F111F8CF57
:20460000FAF4BB0F11F460FF1BC06F5F7F4F8F4F9F4F16C0882311F096E911C0772321F0BE
:204620009EE8872F762F05C0662371F096E8862F70E060E02AF09A95660F771F881FDAF75B
:20464000880F9695879597F90895990F0008550FAA0BE0E8FEEF16161706E807F907C0F0E9
:2046600012161306E407F50798F0621B730B840B950B39F40A2661F0232B242B252B21F4B0
:2046800008950A2609F4A140A6958FEF811D811D089597F99F6780E870E060E008959FEF24
:2046A00080EC089500240A941616170618060906089500240A941216130614060506089557
:2046C000092E0394000C11F4882352F0BB0F40F4BF2B11F460FF04C06F5F7F4F8F4F9F4F96
:2046E000089557FD9058440F551F59F05F3F71F04795880F97FB991F61F09F3F79F0879561
:204700000895121613061406551FF2CF4695F1DF08C0161617061806991FF1CF8695710589
:20472000610508940895E894BB2766277727CB0197F908958ADF08F48FEF08950BD0C0CF6E
:20474000B1DF28F0B6DF18F0952309F0A2CFA7CF1124EACFC6DFA0F3959FD1F3950F50E08A
:20476000551F629FF001729FBB27F00DB11D639FAA27F00DB11DAA1F649F6627B00DA11DA3
:20478000661F829F2227B00DA11D621F739FB00DA11D621F839FA00D611D221F749F332725
:2047A000A00D611D231F849F600D211D822F762F6A2F11249F5750408AF0E1F088234AF0E4
:2047C000EE0FFF1FBB1F661F771F881F91505040A9F79E3F510570F05CCFA6CF5F3FECF361
:2047E000983EDCF3869577956795B795F795E7959F5FC1F7FE2B880F911D9695879597F9A2
:20480000089523DF880B990B0895A1E21A2EAA1BBB1BFD010DC0AA1FBB1FEE1FFF1FA2176D
:20482000B307E407F50720F0A21BB30BE40BF50B661F771F881F991F1A9469F760957095DB
:20484000809590959B01AC01BD01CF010895052E97FB1EF400940E943E2457FD07D00E946E
:20486000052407FC03D04EF40C943E2450954095309521953F4F4F4F5F4F0895909580950F
:20488000709561957F4F8F4F9F4F0895EE0FFF1F0590F491E02D099481E090E0F8940C940A
:2048A0005124F894FFCF00005203800048656C6C6F20576F726C64210048656C6C6F0049DA
:2048C00020696D706C6F726520746865652C006D7920666F6F6E74696E67207475726C6914
:2048E0006E6764726F6D65732E00416E6420686F6F7074696F75736C79206472616E676C91
:2049000065206D650077697468206372696E6B6C792062696E646C65777572646C65732CA8
:20492000004F7220492077696C6C2072656E64207468656500696E2074686520676F6262F4
:20494000657277617274730077697468206D7920626C7572676C656372756E6368656F6EBB
:204960002C00736565206966204920646F6E27742100496E6974206572726F722120004DED
:204980004F5349206F722053434C4B2070696E206D69736D616368210A004353206F722093
:2049A00044432070696E206D69736D616368210A0000000000A1166C1FD321BE0CC40DDB30
:2049C0000D750DF10D260E440E09182D0D13154048530C1D252E24293F262330281055B7A1
:2049E0004019101E02010000000000A1166C1F2919BE0C59199E19750DE3192719191800C7
:204A0000000000001E6C1F821D9B1D8D1DDE1D0D0A006E616E00696E66006F766600FFFF17
:204A2000FFFFFFFFFFFFFFFFFFFFFFFFFFFFFFFFFFFFFFFFFFFFFFFFFFFFFFFFFFFFFFFF96
:204A4000FFFFFFFFFFFFFFFFFFFFFFFFFFFFFFFFFFFFFFFFFFFFFFFFFFFFFFFFFFFFFFFF76
:204A6000FFFFFFFFFFFFFFFFFFFFFFFFFFFFFFFFFFFFFFFFFFFFFFFFFFFFFFFFFFFFFFFF56
:204A8000FFFFFFFFFFFFFFFFFFFFFFFFFFFFFFFFFFFFFFFFFFFFFFFFFFFFFFFFFFFFFFFF36
:207E0000112484B714BE81FFF0D085E08093810082E08093C00088E18093C10086E08093FC
:207E2000C20080E18093C4008EE0C9D0259A86E020E33CEF91E0309385002093840096BBAD
:207E4000B09BFECF1D9AA8958150A9F7CC24DD2488248394B5E0AB2EA1E19A2EF3E0BF2E79
:207E6000A2D0813461F49FD0082FAFD0023811F0013811F484E001C083E08DD089C0823404
:207E800011F484E103C0853419F485E0A6D080C0853579F488D0E82EFF2485D0082F10E0A0
:207EA000102F00270E291F29000F111F8ED068016FC0863521F484E090D080E0DECF84364D
:207EC00009F040C070D06FD0082F6DD080E0C81680E7D80618F4F601B7BEE895C0E0D1E0ED
:207EE00062D089930C17E1F7F0E0CF16F0E7DF0618F0F601B7BEE89568D007B600FCFDCF1A
:207F0000A601A0E0B1E02C9130E011968C91119790E0982F8827822B932B1296FA010C016F
:207F200087BEE89511244E5F5F4FF1E0A038BF0751F7F601A7BEE89507B600FCFDCF97BE85
:207F4000E89526C08437B1F42ED02DD0F82E2BD03CD0F601EF2C8F010F5F1F4F84911BD0B8
:207F6000EA94F801C1F70894C11CD11CFA94CF0CD11C0EC0853739F428D08EE10CD085E9AE
:207F80000AD08FE07ACF813511F488E018D01DD080E101D065CF982F8091C00085FFFCCF0A
:207FA0009093C60008958091C00087FFFCCF8091C00084FD01C0A8958091C6000895E0E68F
:207FC000F0E098E1908380830895EDDF803219F088E0F5DFFFCF84E1DECF1F93182FE3DF47
:207FE0001150E9F7F2DF1F91089580E0E8DFEE27FF270994FFFFFFFFFFFFFFFFFFFF040425
:00000001FF
